:0400000018EF7EF087
:10FBEE00000E376E020E51EC7EF0276E000E376E51
:0AFBFE00030E51EC7EF0276E12009A
:10FC0900800F810F820F830F840F890F8A0F8B0F4B
:10FC19008C0F8D0F920F930F940F950F960F020A69
:10FC2900121A00070A3201090EF66EFC0EF76E0071
:10FC39000EF86E00EE01F010EE27F00900F5CFEE98
:10FC4900FFE550E150FAE100EE28F00F0EEE6AE808
:10FC590006FDE1000EF86E00012EEF7FF0426E0402
:10FC69000E42643AEF7EF03CEF7EF03EEF7EF050BC
:10FC7900EF7EF04250020D0B0EF324D96E000EF404
:10FC890020DA6EDECF40F0DDCF41F040C0D9FF4130
:10FC9900C0DAFF3FC0DFFF12003B6E010E3A6E046F
:10FCA9000E3B645AEF7EF05CEF7EF060EF7EF00071
:10FCB9000E3A6E72EF7EF03B50020D150EF324D909
:10FCC9006E000EF420DA6EDECF38F0DDCF39F03871
:10FCD900C0D9FF39C0DAFF37C0DFFF3A5012000040
:10FCE9000E3C6E38BE7DEF7EF07BEF7EF083EF7EBB
:10FCF900F0376C381ED8B0382A010E3C6E3ABE8AED
:10FD0900EF7EF088EF7EF08EEF7EF0396C3A1ED8E8
:10FD1900B03A2A39503A10D8B495EF7EF097EF7E71
:10FD2900F0BBEF7EF0010E3B6E9FEF7EF0D890396D
:10FD3900363A363B2A3AAEA4EF7EF0A6EF7EF09B28
:10FD4900EF7EF03950375C3A503858D8A0AFEF7E83
:10FD5900F0B1EF7EF0B5EF7EF03950375E3A5038AA
:10FD69005AD8903A3239323B2EA6EF7EF03C50D821
:10FD7900B4C1EF7EF0C3EF7EF0C7EF7EF0376C3889
:10FD89001ED8B0382A37C037F038C038F012000012
:10FD99000E3C6E3ABED5EF7EF0D3EF7EF0DBEF7E00
:10FDA900F0396C3A1ED8B03A2A010E3C6E38BEE2E0
:10FDB900EF7EF0E0EF7EF0E8EF7EF0376C381ED88A
:10FDC900B0382A010E3C1A000E3E6E000E3D6E3907
:10FDD900503A10D8B4F3EF7EF0F5EF7EF01DEF7FC7
:10FDE900F0010E3B6EFDEF7EF0D89039363A363B86
:10FDF9002A3AAE02EF7FF004EF7FF0F9EF7EF0D8F8
:10FE0900903D363E363950375C3A503858D8A010B4
:10FE1900EF7FF012EF7FF017EF7FF03950375E3A3E
:10FE290050385A3D80D8903A3239323B2E04EF7F10
:10FE3900F03C50D8B423EF7FF025EF7FF029EF7F16
:10FE4900F03D6C3E1ED8B03E2A3DC037F03EC0386A
:10FE5900F01200F7EC7DF0000E446E010E3F6E03C8
:10FE69000E33EC7EF024C037F0386A000E3A6E0A81
:10FE79000E396ECCEC7EF037503F6E020E33EC7EBD
:10FE8900F0050E436E530EE82EFED7432EFCD70223
:10FE99000E3F6E030E33EC7EF024C037F0386A0053
:10FEA9000E3A6E0A0E396E74EC7EF037503F6E02D0
:10FEB9000E33EC7EF0050E436E530EE82EFED7434B
:10FEC9002EFCD7040E3F6E030E33EC7EF025C037AF
:10FED900F0386A000E3A6E0A0E396ECCEC7EF037B5
:10FEE900503F6E020E33EC7EF0050E436E530EE862
:10FEF9002EFED7432EFCD7080E3F6E030E33EC7E41
:10FF0900F025C037F0386A000E3A6E0A0E396E7461
:10FF1900EC7EF037503F6E020E33EC7EF0050E4357
:10FF29006E530EE82EFED7432EFCD7100E3F6E03FC
:10FF39000E33EC7EF026C037F0386A000E3A6E0AAE
:10FF49000E396ECCEC7EF037503F6E020E33EC7EEC
:10FF5900F02C0E436E490EE82EFED7432EFCD72017
:10FF69000E3F6E030E33EC7EF026C037F0386A0080
:10FF79000E3A6E0A0E396E74EC7EF037503F6E02FF
:10FF89000E33EC7EF0050E436E530EE82EFED7437A
:10FF99002EFCD7442A320E4464D5EF7FF0D7EF7F89
:10FFA900F032EF7FF0262A3C0E2618D8A4DFEF7F27
:10FFB900F0E1EF7FF0E4EF7FF0000E266E252A3C9A
:10FFC9000E2518D8A4EBEF7FF0EDEF7FF0F0EF7F6F
:10FFD900F0000E256E242A0C0E2418D8A4F7EF7F02
:10FFE900F0F9EF7FF030EF7FF0000E246E242A3015
:07FFF900EF7FF000EF00F0C4
:020000040020DA
:08000000FFFFFFFFFFFFFFFF00
:020000040030CA
:0E000000FF02091EFF8381FF0FC00FE00F40BB
:00000001FF
