:04000000E5EF7FF0B9
:0EFF94001200CAEC7FF0CDEF7FF000EF00F01E
:10FFA300800F810F820F830F840F890F8A0F8B0FAE
:10FFB3008C0F8D0F920F930F940F950F960F020ACC
:10FFC300121A000A221901A30EF66EFF0EF76E0035
:10FFD3000EF86E00EE01F010EE27F00900F5CFEEFB
:10FFE300FFE550E150FAE100EE28F00F0EEE6AE86B
:0DFFF30006FDE1000EF86E0001CBEF7FF07F
:020000040020DA
:08000000FFFFFFFFFFFFFFFF00
:020000040030CA
:0E000000FF02091EFF8381FF0FC00FE00F40BB
:00000001FF
